{
  "contractName": "FoodWasteManagement",
  "abi": [
    {
      "inputs": [],
      "stateMutability": "nonpayable",
      "type": "constructor"
    },
    {
      "anonymous": false,
      "inputs": [
        {
          "indexed": false,
          "internalType": "address",
          "name": "adminAddress",
          "type": "address"
        }
      ],
      "name": "AdminAssigned",
      "type": "event"
    },
    {
      "anonymous": false,
      "inputs": [
        {
          "indexed": false,
          "internalType": "uint256",
          "name": "donationId",
          "type": "uint256"
        },
        {
          "indexed": false,
          "internalType": "address",
          "name": "recipient",
          "type": "address"
        }
      ],
      "name": "DonationClaimed",
      "type": "event"
    },
    {
      "anonymous": false,
      "inputs": [
        {
          "indexed": false,
          "internalType": "uint256",
          "name": "donationId",
          "type": "uint256"
        },
        {
          "indexed": false,
          "internalType": "string",
          "name": "foodType",
          "type": "string"
        },
        {
          "indexed": false,
          "internalType": "uint256",
          "name": "quantity",
          "type": "uint256"
        },
        {
          "indexed": false,
          "internalType": "address",
          "name": "donor",
          "type": "address"
        }
      ],
      "name": "DonationCreated",
      "type": "event"
    },
    {
      "inputs": [],
      "name": "admin",
      "outputs": [
        {
          "internalType": "address",
          "name": "",
          "type": "address"
        }
      ],
      "stateMutability": "view",
      "type": "function",
      "constant": true
    },
    {
      "inputs": [],
      "name": "donationCount",
      "outputs": [
        {
          "internalType": "uint256",
          "name": "",
          "type": "uint256"
        }
      ],
      "stateMutability": "view",
      "type": "function",
      "constant": true
    },
    {
      "inputs": [
        {
          "internalType": "uint256",
          "name": "",
          "type": "uint256"
        }
      ],
      "name": "donations",
      "outputs": [
        {
          "internalType": "uint256",
          "name": "id",
          "type": "uint256"
        },
        {
          "internalType": "string",
          "name": "foodType",
          "type": "string"
        },
        {
          "internalType": "uint256",
          "name": "quantity",
          "type": "uint256"
        },
        {
          "internalType": "address",
          "name": "donor",
          "type": "address"
        },
        {
          "internalType": "address",
          "name": "recipient",
          "type": "address"
        },
        {
          "internalType": "bool",
          "name": "claimed",
          "type": "bool"
        }
      ],
      "stateMutability": "view",
      "type": "function",
      "constant": true
    },
    {
      "inputs": [
        {
          "internalType": "string",
          "name": "_foodType",
          "type": "string"
        },
        {
          "internalType": "uint256",
          "name": "_quantity",
          "type": "uint256"
        }
      ],
      "name": "createDonation",
      "outputs": [],
      "stateMutability": "nonpayable",
      "type": "function"
    },
    {
      "inputs": [
        {
          "internalType": "uint256",
          "name": "_donationId",
          "type": "uint256"
        }
      ],
      "name": "claimDonation",
      "outputs": [],
      "stateMutability": "nonpayable",
      "type": "function"
    }
  ],
  "bytecode": "0x608060405234801561001057600080fd5b50336000806101000a81548173ffffffffffffffffffffffffffffffffffffffff021916908373ffffffffffffffffffffffffffffffffffffffff16021790555060006001819055507fdb33970bd9bc1a413c7dac3b21e061709de094761c9396ef6d49b9ebdb79393360008054906101000a900473ffffffffffffffffffffffffffffffffffffffff166040516100a891906100c4565b60405180910390a1610111565b6100be816100df565b82525050565b60006020820190506100d960008301846100b5565b92915050565b60006100ea826100f1565b9050919050565b600073ffffffffffffffffffffffffffffffffffffffff82169050919050565b610ce4806101206000396000f3fe608060405234801561001057600080fd5b50600436106100575760003560e01c80632abfab4d1461005c5780636a1e65771461007a578063affb2c8414610096578063f851a440146100b2578063f8626af8146100d0575b600080fd5b610064610105565b6040516100719190610a0d565b60405180910390f35b610094600480360381019061008f9190610738565b61010b565b005b6100b060048036038101906100ab9190610790565b61038c565b005b6100ba610501565b6040516100c79190610972565b60405180910390f35b6100ea60048036038101906100e59190610790565b610525565b6040516100fc96959493929190610a9f565b60405180910390f35b60015481565b60008383905011610151576040517f08c379a0000000000000000000000000000000000000000000000000000000008152600401610148906109cd565b60405180910390fd5b60008111610194576040517f08c379a000000000000000000000000000000000000000000000000000000000815260040161018b906109ed565b60405180910390fd5b600160008154809291906101a790610bdf565b91905055506040518060c00160405280600154815260200184848080601f016020809104026020016040519081016040528093929190818152602001838380828437600081840152601f19601f8201169050808301925050505050505081526020018281526020013373ffffffffffffffffffffffffffffffffffffffff168152602001600073ffffffffffffffffffffffffffffffffffffffff1681526020016000151581525060026000600154815260200190815260200160002060008201518160000155602082015181600101908051906020019061028a929190610636565b506040820151816002015560608201518160030160006101000a81548173ffffffffffffffffffffffffffffffffffffffff021916908373ffffffffffffffffffffffffffffffffffffffff16021790555060808201518160040160006101000a81548173ffffffffffffffffffffffffffffffffffffffff021916908373ffffffffffffffffffffffffffffffffffffffff16021790555060a08201518160040160146101000a81548160ff0219169083151502179055509050507f27dbb0da268a17cf8e5a8f8326a3b5d2aa6061a3362677f320bb4ba4af275cbb6001548484843360405161037f959493929190610a51565b60405180910390a1505050565b60008111801561039e57506001548111155b6103dd576040517f08c379a00000000000000000000000000000000000000000000000000000000081526004016103d49061098d565b60405180910390fd5b6002600082815260200190815260200160002060040160149054906101000a900460ff1615610441576040517f08c379a0000000000000000000000000000000000000000000000000000000008152600401610438906109ad565b60405180910390fd5b336002600083815260200190815260200160002060040160006101000a81548173ffffffffffffffffffffffffffffffffffffffff021916908373ffffffffffffffffffffffffffffffffffffffff16021790555060016002600083815260200190815260200160002060040160146101000a81548160ff0219169083151502179055507f61a53e66d53f4f66235e8c976cdb9036cd7c138e2ca272976ec85f8a349daddd81336040516104f6929190610a28565b60405180910390a150565b60008054906101000a900473ffffffffffffffffffffffffffffffffffffffff1681565b600260205280600052604060002060009150905080600001549080600101805461054e90610bad565b80601f016020809104026020016040519081016040528092919081815260200182805461057a90610bad565b80156105c75780601f1061059c576101008083540402835291602001916105c7565b820191906000526020600020905b8154815290600101906020018083116105aa57829003601f168201915b5050505050908060020154908060030160009054906101000a900473ffffffffffffffffffffffffffffffffffffffff16908060040160009054906101000a900473ffffffffffffffffffffffffffffffffffffffff16908060040160149054906101000a900460ff16905086565b82805461064290610bad565b90600052602060002090601f01602090048101928261066457600085556106ab565b82601f1061067d57805160ff19168380011785556106ab565b828001600101855582156106ab579182015b828111156106aa57825182559160200191906001019061068f565b5b5090506106b891906106bc565b5090565b5b808211156106d55760008160009055506001016106bd565b5090565b60008083601f8401126106eb57600080fd5b8235905067ffffffffffffffff81111561070457600080fd5b60208301915083600182028301111561071c57600080fd5b9250929050565b60008135905061073281610c97565b92915050565b60008060006040848603121561074d57600080fd5b600084013567ffffffffffffffff81111561076757600080fd5b610773868287016106d9565b9350935050602061078686828701610723565b9150509250925092565b6000602082840312156107a257600080fd5b60006107b084828501610723565b91505092915050565b6107c281610b23565b82525050565b6107d181610b35565b82525050565b60006107e38385610b12565b93506107f0838584610b6b565b6107f983610c86565b840190509392505050565b600061080f82610b07565b6108198185610b12565b9350610829818560208601610b7a565b61083281610c86565b840191505092915050565b600061084a601383610b12565b91507f496e76616c696420646f6e6174696f6e204944000000000000000000000000006000830152602082019050919050565b600061088a601883610b12565b91507f446f6e6174696f6e20616c726561647920636c61696d656400000000000000006000830152602082019050919050565b60006108ca601983610b12565b91507f466f6f6420747970652063616e6e6f7420626520656d707479000000000000006000830152602082019050919050565b600061090a602283610b12565b91507f5175616e74697479206d7573742062652067726561746572207468616e207a6560008301527f726f0000000000000000000000000000000000000000000000000000000000006020830152604082019050919050565b61096c81610b61565b82525050565b600060208201905061098760008301846107b9565b92915050565b600060208201905081810360008301526109a68161083d565b9050919050565b600060208201905081810360008301526109c68161087d565b9050919050565b600060208201905081810360008301526109e6816108bd565b9050919050565b60006020820190508181036000830152610a06816108fd565b9050919050565b6000602082019050610a226000830184610963565b92915050565b6000604082019050610a3d6000830185610963565b610a4a60208301846107b9565b9392505050565b6000608082019050610a666000830188610963565b8181036020830152610a798186886107d7565b9050610a886040830185610963565b610a9560608301846107b9565b9695505050505050565b600060c082019050610ab46000830189610963565b8181036020830152610ac68188610804565b9050610ad56040830187610963565b610ae260608301866107b9565b610aef60808301856107b9565b610afc60a08301846107c8565b979650505050505050565b600081519050919050565b600082825260208201905092915050565b6000610b2e82610b41565b9050919050565b60008115159050919050565b600073ffffffffffffffffffffffffffffffffffffffff82169050919050565b6000819050919050565b82818337600083830152505050565b60005b83811015610b98578082015181840152602081019050610b7d565b83811115610ba7576000848401525b50505050565b60006002820490506001821680610bc557607f821691505b60208210811415610bd957610bd8610c57565b5b50919050565b6000610bea82610b61565b91507fffffffffffffffffffffffffffffffffffffffffffffffffffffffffffffffff821415610c1d57610c1c610c28565b5b600182019050919050565b7f4e487b7100000000000000000000000000000000000000000000000000000000600052601160045260246000fd5b7f4e487b7100000000000000000000000000000000000000000000000000000000600052602260045260246000fd5b6000601f19601f8301169050919050565b610ca081610b61565b8114610cab57600080fd5b5056fea264697066735822122083bfd2739fd94ff387622fef8a874142408df6c964847703b1f21c4b2473a18464736f6c63430008000033",
  "immutableReferences": {},
  "source": "// SPDX-License-Identifier: GPL-3.0\r\npragma solidity ^0.8.0;\r\n\r\ncontract FoodWasteManagement {\r\n    address public admin;\r\n    uint public donationCount;\r\n\r\n    struct Donation {\r\n        uint id;\r\n        string foodType;\r\n        uint quantity;\r\n        address donor;\r\n        address recipient;\r\n        bool claimed;\r\n    }\r\n\r\n    mapping(uint => Donation) public donations;\r\n\r\n    event DonationCreated(uint donationId, string foodType, uint quantity, address donor);\r\n    event DonationClaimed(uint donationId, address recipient);\r\n    event AdminAssigned(address adminAddress);\r\n\r\n    modifier onlyAdmin() {\r\n        require(msg.sender == admin, \"Only admin can perform this action\");\r\n        _;\r\n    }\r\n\r\n    constructor() {\r\n        admin = msg.sender;\r\n        donationCount = 0;\r\n        emit AdminAssigned(admin);\r\n    }\r\n\r\n    function createDonation(string calldata _foodType, uint _quantity) external {\r\n        require(bytes(_foodType).length > 0, \"Food type cannot be empty\");\r\n        require(_quantity > 0, \"Quantity must be greater than zero\");\r\n\r\n        donationCount++;\r\n        donations[donationCount] = Donation(donationCount, _foodType, _quantity, msg.sender, address(0), false);\r\n\r\n        emit DonationCreated(donationCount, _foodType, _quantity, msg.sender);\r\n    }\r\n\r\n    function claimDonation(uint _donationId) external {\r\n        require(_donationId > 0 && _donationId <= donationCount, \"Invalid donation ID\");\r\n        require(!donations[_donationId].claimed, \"Donation already claimed\");\r\n\r\n        donations[_donationId].recipient = msg.sender;\r\n        donations[_donationId].claimed = true;\r\n\r\n        emit DonationClaimed(_donationId, msg.sender);\r\n    }\r\n}",
  "sourcePath": "C:\\Users\\ADMIN\\Desktop\\FoodWasteManagement\\contracts\\FoodWasteManagement.sol",
  "compiler": {
    "name": "solc",
    "version": "0.8.0+commit.c7dfd78e.Emscripten.clang"
  },
  "schemaVersion": "3.4.16",
  "updatedAt": "2025-03-03T04:25:50.859Z",
  "networkType": "ethereum",
  "devdoc": {
    "kind": "dev",
    "methods": {},
    "version": 1
  },
  "userdoc": {
    "kind": "user",
    "methods": {},
    "version": 1
  }
}