{
  "contractName": "FoodWaste",
  "abi": [
    {
      "inputs": [
        {
          "internalType": "address",
          "name": "initialOwner",
          "type": "address"
        }
      ],
      "stateMutability": "nonpayable",
      "type": "constructor"
    },
    {
      "inputs": [
        {
          "internalType": "address",
          "name": "owner",
          "type": "address"
        }
      ],
      "name": "OwnableInvalidOwner",
      "type": "error"
    },
    {
      "inputs": [
        {
          "internalType": "address",
          "name": "account",
          "type": "address"
        }
      ],
      "name": "OwnableUnauthorizedAccount",
      "type": "error"
    },
    {
      "anonymous": false,
      "inputs": [
        {
          "indexed": false,
          "internalType": "uint256",
          "name": "id",
          "type": "uint256"
        },
        {
          "indexed": true,
          "internalType": "address",
          "name": "donor",
          "type": "address"
        },
        {
          "indexed": false,
          "internalType": "string",
          "name": "description",
          "type": "string"
        },
        {
          "indexed": false,
          "internalType": "uint256",
          "name": "quantity",
          "type": "uint256"
        }
      ],
      "name": "DonationAdded",
      "type": "event"
    },
    {
      "anonymous": false,
      "inputs": [
        {
          "indexed": false,
          "internalType": "uint256",
          "name": "donationId",
          "type": "uint256"
        },
        {
          "indexed": true,
          "internalType": "address",
          "name": "recipient",
          "type": "address"
        }
      ],
      "name": "DonationClaimed",
      "type": "event"
    },
    {
      "anonymous": false,
      "inputs": [
        {
          "indexed": true,
          "internalType": "address",
          "name": "previousOwner",
          "type": "address"
        },
        {
          "indexed": true,
          "internalType": "address",
          "name": "newOwner",
          "type": "address"
        }
      ],
      "name": "OwnershipTransferred",
      "type": "event"
    },
    {
      "anonymous": false,
      "inputs": [
        {
          "indexed": false,
          "internalType": "uint256",
          "name": "donationId",
          "type": "uint256"
        },
        {
          "indexed": true,
          "internalType": "address",
          "name": "recipient",
          "type": "address"
        }
      ],
      "name": "RequestMade",
      "type": "event"
    },
    {
      "inputs": [],
      "name": "donationCounter",
      "outputs": [
        {
          "internalType": "uint256",
          "name": "",
          "type": "uint256"
        }
      ],
      "stateMutability": "view",
      "type": "function"
    },
    {
      "inputs": [
        {
          "internalType": "uint256",
          "name": "",
          "type": "uint256"
        }
      ],
      "name": "donations",
      "outputs": [
        {
          "internalType": "uint256",
          "name": "id",
          "type": "uint256"
        },
        {
          "internalType": "address",
          "name": "donor",
          "type": "address"
        },
        {
          "internalType": "string",
          "name": "description",
          "type": "string"
        },
        {
          "internalType": "uint256",
          "name": "quantity",
          "type": "uint256"
        },
        {
          "internalType": "bool",
          "name": "isClaimed",
          "type": "bool"
        }
      ],
      "stateMutability": "view",
      "type": "function"
    },
    {
      "inputs": [],
      "name": "owner",
      "outputs": [
        {
          "internalType": "address",
          "name": "",
          "type": "address"
        }
      ],
      "stateMutability": "view",
      "type": "function"
    },
    {
      "inputs": [],
      "name": "renounceOwnership",
      "outputs": [],
      "stateMutability": "nonpayable",
      "type": "function"
    },
    {
      "inputs": [
        {
          "internalType": "uint256",
          "name": "",
          "type": "uint256"
        }
      ],
      "name": "requests",
      "outputs": [
        {
          "internalType": "uint256",
          "name": "donationId",
          "type": "uint256"
        },
        {
          "internalType": "address",
          "name": "recipient",
          "type": "address"
        },
        {
          "internalType": "bool",
          "name": "isApproved",
          "type": "bool"
        }
      ],
      "stateMutability": "view",
      "type": "function"
    },
    {
      "inputs": [
        {
          "internalType": "address",
          "name": "newOwner",
          "type": "address"
        }
      ],
      "name": "transferOwnership",
      "outputs": [],
      "stateMutability": "nonpayable",
      "type": "function"
    },
    {
      "inputs": [
        {
          "internalType": "string",
          "name": "_description",
          "type": "string"
        },
        {
          "internalType": "uint256",
          "name": "_quantity",
          "type": "uint256"
        }
      ],
      "name": "addDonation",
      "outputs": [],
      "stateMutability": "nonpayable",
      "type": "function"
    },
    {
      "inputs": [
        {
          "internalType": "uint256",
          "name": "_donationId",
          "type": "uint256"
        }
      ],
      "name": "requestDonation",
      "outputs": [],
      "stateMutability": "nonpayable",
      "type": "function"
    },
    {
      "inputs": [
        {
          "internalType": "uint256",
          "name": "_donationId",
          "type": "uint256"
        }
      ],
      "name": "approveRequest",
      "outputs": [],
      "stateMutability": "nonpayable",
      "type": "function"
    }
  ],
  "bytecode": "0x608060405234801562000010575f80fd5b5060405162001640380380620016408339818101604052810190620000369190620001e9565b805f73ffffffffffffffffffffffffffffffffffffffff168173ffffffffffffffffffffffffffffffffffffffff1603620000aa575f6040517f1e4fbdf7000000000000000000000000000000000000000000000000000000008152600401620000a191906200022a565b60405180910390fd5b620000bb81620000c360201b60201c565b505062000245565b5f805f9054906101000a900473ffffffffffffffffffffffffffffffffffffffff169050815f806101000a81548173ffffffffffffffffffffffffffffffffffffffff021916908373ffffffffffffffffffffffffffffffffffffffff1602179055508173ffffffffffffffffffffffffffffffffffffffff168173ffffffffffffffffffffffffffffffffffffffff167f8be0079c531659141344cd1fd0a4f28419497f9722a3daafe3b4186f6b6457e060405160405180910390a35050565b5f80fd5b5f73ffffffffffffffffffffffffffffffffffffffff82169050919050565b5f620001b38262000188565b9050919050565b620001c581620001a7565b8114620001d0575f80fd5b50565b5f81519050620001e381620001ba565b92915050565b5f6020828403121562000201576200020062000184565b5b5f6200021084828501620001d3565b91505092915050565b6200022481620001a7565b82525050565b5f6020820190506200023f5f83018462000219565b92915050565b6113ed80620002535f395ff3fe608060405234801561000f575f80fd5b5060043610610091575f3560e01c80638da5cb5b116100645780638da5cb5b1461010b578063d3f0ddcc14610129578063d7d1bbdb14610145578063f2fde38b14610161578063f8626af81461017d57610091565b806313c701db1461009557806338d187dd146100b1578063715018a6146100cf57806381d12c58146100d9575b5f80fd5b6100af60048036038101906100aa9190610ac1565b6101b1565b005b6100b96103b9565b6040516100c69190610afb565b60405180910390f35b6100d76103bf565b005b6100f360048036038101906100ee9190610ac1565b6103d2565b60405161010293929190610b6d565b60405180910390f35b610113610424565b6040516101209190610ba2565b60405180910390f35b610143600480360381019061013e9190610cf7565b61044b565b005b61015f600480360381019061015a9190610ac1565b6105e0565b005b61017b60048036038101906101769190610d7b565b6107c7565b005b61019760048036038101906101929190610ac1565b61084b565b6040516101a8959493929190610e20565b60405180910390f35b5f73ffffffffffffffffffffffffffffffffffffffff1660025f8381526020019081526020015f206001015f9054906101000a900473ffffffffffffffffffffffffffffffffffffffff1673ffffffffffffffffffffffffffffffffffffffff1603610252576040517f08c379a000000000000000000000000000000000000000000000000000000000815260040161024990610ec2565b60405180910390fd5b60025f8281526020019081526020015f206004015f9054906101000a900460ff16156102b3576040517f08c379a00000000000000000000000000000000000000000000000000000000081526004016102aa90610f2a565b60405180910390fd5b60405180606001604052808281526020013373ffffffffffffffffffffffffffffffffffffffff1681526020015f151581525060035f8381526020019081526020015f205f820151815f01556020820151816001015f6101000a81548173ffffffffffffffffffffffffffffffffffffffff021916908373ffffffffffffffffffffffffffffffffffffffff16021790555060408201518160010160146101000a81548160ff0219169083151502179055509050503373ffffffffffffffffffffffffffffffffffffffff167ff6383566871d24477401836c4beecba038a9f9e76ffbf159be9570f03c2adcd7826040516103ae9190610afb565b60405180910390a250565b60015481565b6103c761092e565b6103d05f6109b5565b565b6003602052805f5260405f205f91509050805f015490806001015f9054906101000a900473ffffffffffffffffffffffffffffffffffffffff16908060010160149054906101000a900460ff16905083565b5f805f9054906101000a900473ffffffffffffffffffffffffffffffffffffffff16905090565b5f811161048d576040517f08c379a000000000000000000000000000000000000000000000000000000000815260040161048490610fb8565b60405180910390fd5b60015f81548092919061049f90611003565b91905055506040518060a0016040528060015481526020013373ffffffffffffffffffffffffffffffffffffffff1681526020018381526020018281526020015f151581525060025f60015481526020019081526020015f205f820151815f01556020820151816001015f6101000a81548173ffffffffffffffffffffffffffffffffffffffff021916908373ffffffffffffffffffffffffffffffffffffffff160217905550604082015181600201908161055b9190611244565b50606082015181600301556080820151816004015f6101000a81548160ff0219169083151502179055509050503373ffffffffffffffffffffffffffffffffffffffff167f7ff1d4469cf554123e1f3e99be76f931d9f79154ab353031484688e5bc6f072260015484846040516105d493929190611313565b60405180910390a25050565b6105e861092e565b5f73ffffffffffffffffffffffffffffffffffffffff1660035f8381526020019081526020015f206001015f9054906101000a900473ffffffffffffffffffffffffffffffffffffffff1673ffffffffffffffffffffffffffffffffffffffff1603610689576040517f08c379a000000000000000000000000000000000000000000000000000000000815260040161068090611399565b60405180910390fd5b60025f8281526020019081526020015f206004015f9054906101000a900460ff16156106ea576040517f08c379a00000000000000000000000000000000000000000000000000000000081526004016106e190610f2a565b60405180910390fd5b600160025f8381526020019081526020015f206004015f6101000a81548160ff021916908315150217905550600160035f8381526020019081526020015f2060010160146101000a81548160ff02191690831515021790555060035f8281526020019081526020015f206001015f9054906101000a900473ffffffffffffffffffffffffffffffffffffffff1673ffffffffffffffffffffffffffffffffffffffff167f61a53e66d53f4f66235e8c976cdb9036cd7c138e2ca272976ec85f8a349daddd826040516107bc9190610afb565b60405180910390a250565b6107cf61092e565b5f73ffffffffffffffffffffffffffffffffffffffff168173ffffffffffffffffffffffffffffffffffffffff160361083f575f6040517f1e4fbdf70000000000000000000000000000000000000000000000000000000081526004016108369190610ba2565b60405180910390fd5b610848816109b5565b50565b6002602052805f5260405f205f91509050805f015490806001015f9054906101000a900473ffffffffffffffffffffffffffffffffffffffff169080600201805461089590611077565b80601f01602080910402602001604051908101604052809291908181526020018280546108c190611077565b801561090c5780601f106108e35761010080835404028352916020019161090c565b820191905f5260205f20905b8154815290600101906020018083116108ef57829003601f168201915b505050505090806003015490806004015f9054906101000a900460ff16905085565b610936610a76565b73ffffffffffffffffffffffffffffffffffffffff16610954610424565b73ffffffffffffffffffffffffffffffffffffffff16146109b357610977610a76565b6040517f118cdaa70000000000000000000000000000000000000000000000000000000081526004016109aa9190610ba2565b60405180910390fd5b565b5f805f9054906101000a900473ffffffffffffffffffffffffffffffffffffffff169050815f806101000a81548173ffffffffffffffffffffffffffffffffffffffff021916908373ffffffffffffffffffffffffffffffffffffffff1602179055508173ffffffffffffffffffffffffffffffffffffffff168173ffffffffffffffffffffffffffffffffffffffff167f8be0079c531659141344cd1fd0a4f28419497f9722a3daafe3b4186f6b6457e060405160405180910390a35050565b5f33905090565b5f604051905090565b5f80fd5b5f80fd5b5f819050919050565b610aa081610a8e565b8114610aaa575f80fd5b50565b5f81359050610abb81610a97565b92915050565b5f60208284031215610ad657610ad5610a86565b5b5f610ae384828501610aad565b91505092915050565b610af581610a8e565b82525050565b5f602082019050610b0e5f830184610aec565b92915050565b5f73ffffffffffffffffffffffffffffffffffffffff82169050919050565b5f610b3d82610b14565b9050919050565b610b4d81610b33565b82525050565b5f8115159050919050565b610b6781610b53565b82525050565b5f606082019050610b805f830186610aec565b610b8d6020830185610b44565b610b9a6040830184610b5e565b949350505050565b5f602082019050610bb55f830184610b44565b92915050565b5f80fd5b5f80fd5b5f601f19601f8301169050919050565b7f4e487b71000000000000000000000000000000000000000000000000000000005f52604160045260245ffd5b610c0982610bc3565b810181811067ffffffffffffffff82111715610c2857610c27610bd3565b5b80604052505050565b5f610c3a610a7d565b9050610c468282610c00565b919050565b5f67ffffffffffffffff821115610c6557610c64610bd3565b5b610c6e82610bc3565b9050602081019050919050565b828183375f83830152505050565b5f610c9b610c9684610c4b565b610c31565b905082815260208101848484011115610cb757610cb6610bbf565b5b610cc2848285610c7b565b509392505050565b5f82601f830112610cde57610cdd610bbb565b5b8135610cee848260208601610c89565b91505092915050565b5f8060408385031215610d0d57610d0c610a86565b5b5f83013567ffffffffffffffff811115610d2a57610d29610a8a565b5b610d3685828601610cca565b9250506020610d4785828601610aad565b9150509250929050565b610d5a81610b33565b8114610d64575f80fd5b50565b5f81359050610d7581610d51565b92915050565b5f60208284031215610d9057610d8f610a86565b5b5f610d9d84828501610d67565b91505092915050565b5f81519050919050565b5f82825260208201905092915050565b5f5b83811015610ddd578082015181840152602081019050610dc2565b5f8484015250505050565b5f610df282610da6565b610dfc8185610db0565b9350610e0c818560208601610dc0565b610e1581610bc3565b840191505092915050565b5f60a082019050610e335f830188610aec565b610e406020830187610b44565b8181036040830152610e528186610de8565b9050610e616060830185610aec565b610e6e6080830184610b5e565b9695505050505050565b7f446f6e6174696f6e20646f6573206e6f742065786973740000000000000000005f82015250565b5f610eac601783610db0565b9150610eb782610e78565b602082019050919050565b5f6020820190508181035f830152610ed981610ea0565b9050919050565b7f446f6e6174696f6e20616c726561647920636c61696d656400000000000000005f82015250565b5f610f14601883610db0565b9150610f1f82610ee0565b602082019050919050565b5f6020820190508181035f830152610f4181610f08565b9050919050565b7f5175616e74697479206d7573742062652067726561746572207468616e207a655f8201527f726f000000000000000000000000000000000000000000000000000000000000602082015250565b5f610fa2602283610db0565b9150610fad82610f48565b604082019050919050565b5f6020820190508181035f830152610fcf81610f96565b9050919050565b7f4e487b71000000000000000000000000000000000000000000000000000000005f52601160045260245ffd5b5f61100d82610a8e565b91507fffffffffffffffffffffffffffffffffffffffffffffffffffffffffffffffff820361103f5761103e610fd6565b5b600182019050919050565b7f4e487b71000000000000000000000000000000000000000000000000000000005f52602260045260245ffd5b5f600282049050600182168061108e57607f821691505b6020821081036110a1576110a061104a565b5b50919050565b5f819050815f5260205f209050919050565b5f6020601f8301049050919050565b5f82821b905092915050565b5f600883026111037fffffffffffffffffffffffffffffffffffffffffffffffffffffffffffffffff826110c8565b61110d86836110c8565b95508019841693508086168417925050509392505050565b5f819050919050565b5f61114861114361113e84610a8e565b611125565b610a8e565b9050919050565b5f819050919050565b6111618361112e565b61117561116d8261114f565b8484546110d4565b825550505050565b5f90565b61118961117d565b611194818484611158565b505050565b5b818110156111b7576111ac5f82611181565b60018101905061119a565b5050565b601f8211156111fc576111cd816110a7565b6111d6846110b9565b810160208510156111e5578190505b6111f96111f1856110b9565b830182611199565b50505b505050565b5f82821c905092915050565b5f61121c5f1984600802611201565b1980831691505092915050565b5f611234838361120d565b9150826002028217905092915050565b61124d82610da6565b67ffffffffffffffff81111561126657611265610bd3565b5b6112708254611077565b61127b8282856111bb565b5f60209050601f8311600181146112ac575f841561129a578287015190505b6112a48582611229565b86555061130b565b601f1984166112ba866110a7565b5f5b828110156112e1578489015182556001820191506020850194506020810190506112bc565b868310156112fe57848901516112fa601f89168261120d565b8355505b6001600288020188555050505b505050505050565b5f6060820190506113265f830186610aec565b81810360208301526113388185610de8565b90506113476040830184610aec565b949350505050565b7f5265717565737420646f6573206e6f74206578697374000000000000000000005f82015250565b5f611383601683610db0565b915061138e8261134f565b602082019050919050565b5f6020820190508181035f8301526113b081611377565b905091905056fea2646970667358221220d0e74870acd29f4e63ee5806135b6276ae78cc03e0fa2425cf24fa863bee4ceb64736f6c63430008150033",
  "immutableReferences": {},
  "source": "// SPDX-License-Identifier: MIT\r\npragma solidity ^0.8.0;\r\n\r\nimport \"@openzeppelin/contracts/access/Ownable.sol\";\r\n\r\ncontract FoodWaste is Ownable {\r\n    // Struct to hold food donation details\r\n    struct Donation {\r\n        uint id;\r\n        address donor;\r\n        string description;\r\n        uint quantity;\r\n        bool isClaimed;\r\n    }\r\n\r\n    // Struct to hold recipient requests\r\n    struct Request {\r\n        uint donationId;\r\n        address recipient;\r\n        bool isApproved;\r\n    }\r\n\r\n    // State variables\r\n    uint public donationCounter;\r\n    mapping(uint => Donation) public donations;\r\n    mapping(uint => Request) public requests;\r\n\r\n    // Events\r\n    event DonationAdded(uint id, address indexed donor, string description, uint quantity);\r\n    event RequestMade(uint donationId, address indexed recipient);\r\n    event DonationClaimed(uint donationId, address indexed recipient);\r\n\r\n    // Constructor\r\n    constructor(address initialOwner) Ownable(initialOwner) {}\r\n\r\n    // Function to add a new food donation\r\n    function addDonation(string memory _description, uint _quantity) public {\r\n        require(_quantity > 0, \"Quantity must be greater than zero\");\r\n        donationCounter++;\r\n        donations[donationCounter] = Donation(donationCounter, msg.sender, _description, _quantity, false);\r\n\r\n        emit DonationAdded(donationCounter, msg.sender, _description, _quantity);\r\n    }\r\n\r\n    // Function to request a donation\r\n    function requestDonation(uint _donationId) public {\r\n        require(donations[_donationId].donor != address(0), \"Donation does not exist\");\r\n        require(!donations[_donationId].isClaimed, \"Donation already claimed\");\r\n\r\n        requests[_donationId] = Request(_donationId, msg.sender, false);\r\n\r\n        emit RequestMade(_donationId, msg.sender);\r\n    }\r\n\r\n    // Function to approve a donation request\r\n    function approveRequest(uint _donationId) public onlyOwner {\r\n        require(requests[_donationId].recipient != address(0), \"Request does not exist\");\r\n        require(!donations[_donationId].isClaimed, \"Donation already claimed\");\r\n\r\n        donations[_donationId].isClaimed = true;\r\n        requests[_donationId].isApproved = true;\r\n\r\n        emit DonationClaimed(_donationId, requests[_donationId].recipient);\r\n    }\r\n}\r\n\r\n",
  "sourcePath": "C:\\Users\\ADMIN\\FoodWasteManagement\\contracts\\FoodWaste.sol",
  "compiler": {
    "name": "solc",
    "version": "0.8.21+commit.d9974bed.Emscripten.clang"
  },
  "schemaVersion": "3.4.16",
  "updatedAt": "2025-01-29T02:42:28.630Z",
  "devdoc": {
    "errors": {
      "OwnableInvalidOwner(address)": [
        {
          "details": "The owner is not a valid owner account. (eg. `address(0)`)"
        }
      ],
      "OwnableUnauthorizedAccount(address)": [
        {
          "details": "The caller account is not authorized to perform an operation."
        }
      ]
    },
    "kind": "dev",
    "methods": {
      "owner()": {
        "details": "Returns the address of the current owner."
      },
      "renounceOwnership()": {
        "details": "Leaves the contract without owner. It will not be possible to call `onlyOwner` functions. Can only be called by the current owner. NOTE: Renouncing ownership will leave the contract without an owner, thereby disabling any functionality that is only available to the owner."
      },
      "transferOwnership(address)": {
        "details": "Transfers ownership of the contract to a new account (`newOwner`). Can only be called by the current owner."
      }
    },
    "version": 1
  },
  "userdoc": {
    "kind": "user",
    "methods": {},
    "version": 1
  }
}