{
  "contractName": "FoodDonation",
  "abi": [
    {
      "inputs": [],
      "stateMutability": "nonpayable",
      "type": "constructor"
    },
    {
      "anonymous": false,
      "inputs": [
        {
          "indexed": false,
          "internalType": "uint256",
          "name": "donationId",
          "type": "uint256"
        },
        {
          "indexed": false,
          "internalType": "address",
          "name": "recipient",
          "type": "address"
        }
      ],
      "name": "DonationClaimed",
      "type": "event"
    },
    {
      "anonymous": false,
      "inputs": [
        {
          "indexed": false,
          "internalType": "uint256",
          "name": "donationId",
          "type": "uint256"
        },
        {
          "indexed": false,
          "internalType": "string",
          "name": "foodType",
          "type": "string"
        },
        {
          "indexed": false,
          "internalType": "uint256",
          "name": "quantity",
          "type": "uint256"
        },
        {
          "indexed": false,
          "internalType": "address",
          "name": "donor",
          "type": "address"
        }
      ],
      "name": "DonationCreated",
      "type": "event"
    },
    {
      "inputs": [],
      "name": "admin",
      "outputs": [
        {
          "internalType": "address",
          "name": "",
          "type": "address"
        }
      ],
      "stateMutability": "view",
      "type": "function"
    },
    {
      "inputs": [],
      "name": "donationCount",
      "outputs": [
        {
          "internalType": "uint256",
          "name": "",
          "type": "uint256"
        }
      ],
      "stateMutability": "view",
      "type": "function"
    },
    {
      "inputs": [
        {
          "internalType": "uint256",
          "name": "",
          "type": "uint256"
        }
      ],
      "name": "donations",
      "outputs": [
        {
          "internalType": "uint256",
          "name": "id",
          "type": "uint256"
        },
        {
          "internalType": "string",
          "name": "foodType",
          "type": "string"
        },
        {
          "internalType": "uint256",
          "name": "quantity",
          "type": "uint256"
        },
        {
          "internalType": "address",
          "name": "donor",
          "type": "address"
        },
        {
          "internalType": "address",
          "name": "recipient",
          "type": "address"
        },
        {
          "internalType": "bool",
          "name": "claimed",
          "type": "bool"
        }
      ],
      "stateMutability": "view",
      "type": "function"
    },
    {
      "inputs": [
        {
          "internalType": "string",
          "name": "_foodType",
          "type": "string"
        },
        {
          "internalType": "uint256",
          "name": "_quantity",
          "type": "uint256"
        }
      ],
      "name": "createDonation",
      "outputs": [],
      "stateMutability": "nonpayable",
      "type": "function"
    },
    {
      "inputs": [
        {
          "internalType": "uint256",
          "name": "_donationId",
          "type": "uint256"
        }
      ],
      "name": "claimDonation",
      "outputs": [],
      "stateMutability": "nonpayable",
      "type": "function"
    },
    {
      "inputs": [
        {
          "internalType": "uint256",
          "name": "_donationId",
          "type": "uint256"
        }
      ],
      "name": "getDonation",
      "outputs": [
        {
          "components": [
            {
              "internalType": "uint256",
              "name": "id",
              "type": "uint256"
            },
            {
              "internalType": "string",
              "name": "foodType",
              "type": "string"
            },
            {
              "internalType": "uint256",
              "name": "quantity",
              "type": "uint256"
            },
            {
              "internalType": "address",
              "name": "donor",
              "type": "address"
            },
            {
              "internalType": "address",
              "name": "recipient",
              "type": "address"
            },
            {
              "internalType": "bool",
              "name": "claimed",
              "type": "bool"
            }
          ],
          "internalType": "struct FoodDonation.Donation",
          "name": "",
          "type": "tuple"
        }
      ],
      "stateMutability": "view",
      "type": "function"
    }
  ],
  "bytecode": "0x608060405234801561000f575f80fd5b50335f806101000a81548173ffffffffffffffffffffffffffffffffffffffff021916908373ffffffffffffffffffffffffffffffffffffffff16021790555061110d8061005c5f395ff3fe608060405234801561000f575f80fd5b5060043610610060575f3560e01c80632abfab4d146100645780636a1e657714610082578063affb2c841461009e578063ef07a81f146100ba578063f851a440146100ea578063f8626af814610108575b5f80fd5b61006c61013d565b60405161007991906107d7565b60405180910390f35b61009c60048036038101906100979190610967565b610143565b005b6100b860048036038101906100b391906109c1565b6102e4565b005b6100d460048036038101906100cf91906109c1565b6104a1565b6040516100e19190610b54565b60405180910390f35b6100f2610634565b6040516100ff9190610b83565b60405180910390f35b610122600480360381019061011d91906109c1565b610657565b60405161013496959493929190610bf3565b60405180910390f35b60025481565b60025f81548092919061015590610c86565b91905055506040518060c0016040528060025481526020018381526020018281526020013373ffffffffffffffffffffffffffffffffffffffff1681526020015f73ffffffffffffffffffffffffffffffffffffffff1681526020015f151581525060015f60025481526020019081526020015f205f820151815f015560208201518160010190816101e79190610ec7565b50604082015181600201556060820151816003015f6101000a81548173ffffffffffffffffffffffffffffffffffffffff021916908373ffffffffffffffffffffffffffffffffffffffff1602179055506080820151816004015f6101000a81548173ffffffffffffffffffffffffffffffffffffffff021916908373ffffffffffffffffffffffffffffffffffffffff16021790555060a08201518160040160146101000a81548160ff0219169083151502179055509050507f27dbb0da268a17cf8e5a8f8326a3b5d2aa6061a3362677f320bb4ba4af275cbb6002548383336040516102d89493929190610f96565b60405180910390a15050565b5f73ffffffffffffffffffffffffffffffffffffffff1660015f8381526020019081526020015f206003015f9054906101000a900473ffffffffffffffffffffffffffffffffffffffff1673ffffffffffffffffffffffffffffffffffffffff1603610385576040517f08c379a000000000000000000000000000000000000000000000000000000000815260040161037c9061102a565b60405180910390fd5b60015f8281526020019081526020015f2060040160149054906101000a900460ff16156103e7576040517f08c379a00000000000000000000000000000000000000000000000000000000081526004016103de90611092565b60405180910390fd5b3360015f8381526020019081526020015f206004015f6101000a81548173ffffffffffffffffffffffffffffffffffffffff021916908373ffffffffffffffffffffffffffffffffffffffff1602179055506001805f8381526020019081526020015f2060040160146101000a81548160ff0219169083151502179055507f61a53e66d53f4f66235e8c976cdb9036cd7c138e2ca272976ec85f8a349daddd81336040516104969291906110b0565b60405180910390a150565b6104a9610760565b60015f8381526020019081526020015f206040518060c00160405290815f82015481526020016001820180546104de90610cfa565b80601f016020809104026020016040519081016040528092919081815260200182805461050a90610cfa565b80156105555780601f1061052c57610100808354040283529160200191610555565b820191905f5260205f20905b81548152906001019060200180831161053857829003601f168201915b5050505050815260200160028201548152602001600382015f9054906101000a900473ffffffffffffffffffffffffffffffffffffffff1673ffffffffffffffffffffffffffffffffffffffff1673ffffffffffffffffffffffffffffffffffffffff168152602001600482015f9054906101000a900473ffffffffffffffffffffffffffffffffffffffff1673ffffffffffffffffffffffffffffffffffffffff1673ffffffffffffffffffffffffffffffffffffffff1681526020016004820160149054906101000a900460ff1615151515815250509050919050565b5f8054906101000a900473ffffffffffffffffffffffffffffffffffffffff1681565b6001602052805f5260405f205f91509050805f01549080600101805461067c90610cfa565b80601f01602080910402602001604051908101604052809291908181526020018280546106a890610cfa565b80156106f35780601f106106ca576101008083540402835291602001916106f3565b820191905f5260205f20905b8154815290600101906020018083116106d657829003601f168201915b505050505090806002015490806003015f9054906101000a900473ffffffffffffffffffffffffffffffffffffffff1690806004015f9054906101000a900473ffffffffffffffffffffffffffffffffffffffff16908060040160149054906101000a900460ff16905086565b6040518060c001604052805f8152602001606081526020015f81526020015f73ffffffffffffffffffffffffffffffffffffffff1681526020015f73ffffffffffffffffffffffffffffffffffffffff1681526020015f151581525090565b5f819050919050565b6107d1816107bf565b82525050565b5f6020820190506107ea5f8301846107c8565b92915050565b5f604051905090565b5f80fd5b5f80fd5b5f80fd5b5f80fd5b5f601f19601f8301169050919050565b7f4e487b71000000000000000000000000000000000000000000000000000000005f52604160045260245ffd5b61084f82610809565b810181811067ffffffffffffffff8211171561086e5761086d610819565b5b80604052505050565b5f6108806107f0565b905061088c8282610846565b919050565b5f67ffffffffffffffff8211156108ab576108aa610819565b5b6108b482610809565b9050602081019050919050565b828183375f83830152505050565b5f6108e16108dc84610891565b610877565b9050828152602081018484840111156108fd576108fc610805565b5b6109088482856108c1565b509392505050565b5f82601f83011261092457610923610801565b5b81356109348482602086016108cf565b91505092915050565b610946816107bf565b8114610950575f80fd5b50565b5f813590506109618161093d565b92915050565b5f806040838503121561097d5761097c6107f9565b5b5f83013567ffffffffffffffff81111561099a576109996107fd565b5b6109a685828601610910565b92505060206109b785828601610953565b9150509250929050565b5f602082840312156109d6576109d56107f9565b5b5f6109e384828501610953565b91505092915050565b6109f5816107bf565b82525050565b5f81519050919050565b5f82825260208201905092915050565b5f5b83811015610a32578082015181840152602081019050610a17565b5f8484015250505050565b5f610a47826109fb565b610a518185610a05565b9350610a61818560208601610a15565b610a6a81610809565b840191505092915050565b5f73ffffffffffffffffffffffffffffffffffffffff82169050919050565b5f610a9e82610a75565b9050919050565b610aae81610a94565b82525050565b5f8115159050919050565b610ac881610ab4565b82525050565b5f60c083015f830151610ae35f8601826109ec565b5060208301518482036020860152610afb8282610a3d565b9150506040830151610b1060408601826109ec565b506060830151610b236060860182610aa5565b506080830151610b366080860182610aa5565b5060a0830151610b4960a0860182610abf565b508091505092915050565b5f6020820190508181035f830152610b6c8184610ace565b905092915050565b610b7d81610a94565b82525050565b5f602082019050610b965f830184610b74565b92915050565b5f82825260208201905092915050565b5f610bb6826109fb565b610bc08185610b9c565b9350610bd0818560208601610a15565b610bd981610809565b840191505092915050565b610bed81610ab4565b82525050565b5f60c082019050610c065f8301896107c8565b8181036020830152610c188188610bac565b9050610c2760408301876107c8565b610c346060830186610b74565b610c416080830185610b74565b610c4e60a0830184610be4565b979650505050505050565b7f4e487b71000000000000000000000000000000000000000000000000000000005f52601160045260245ffd5b5f610c90826107bf565b91507fffffffffffffffffffffffffffffffffffffffffffffffffffffffffffffffff8203610cc257610cc1610c59565b5b600182019050919050565b7f4e487b71000000000000000000000000000000000000000000000000000000005f52602260045260245ffd5b5f6002820490506001821680610d1157607f821691505b602082108103610d2457610d23610ccd565b5b50919050565b5f819050815f5260205f209050919050565b5f6020601f8301049050919050565b5f82821b905092915050565b5f60088302610d867fffffffffffffffffffffffffffffffffffffffffffffffffffffffffffffffff82610d4b565b610d908683610d4b565b95508019841693508086168417925050509392505050565b5f819050919050565b5f610dcb610dc6610dc1846107bf565b610da8565b6107bf565b9050919050565b5f819050919050565b610de483610db1565b610df8610df082610dd2565b848454610d57565b825550505050565b5f90565b610e0c610e00565b610e17818484610ddb565b505050565b5b81811015610e3a57610e2f5f82610e04565b600181019050610e1d565b5050565b601f821115610e7f57610e5081610d2a565b610e5984610d3c565b81016020851015610e68578190505b610e7c610e7485610d3c565b830182610e1c565b50505b505050565b5f82821c905092915050565b5f610e9f5f1984600802610e84565b1980831691505092915050565b5f610eb78383610e90565b9150826002028217905092915050565b610ed0826109fb565b67ffffffffffffffff811115610ee957610ee8610819565b5b610ef38254610cfa565b610efe828285610e3e565b5f60209050601f831160018114610f2f575f8415610f1d578287015190505b610f278582610eac565b865550610f8e565b601f198416610f3d86610d2a565b5f5b82811015610f6457848901518255600182019150602085019450602081019050610f3f565b86831015610f815784890151610f7d601f891682610e90565b8355505b6001600288020188555050505b505050505050565b5f608082019050610fa95f8301876107c8565b8181036020830152610fbb8186610bac565b9050610fca60408301856107c8565b610fd76060830184610b74565b95945050505050565b7f446f6e6174696f6e20646f6573206e6f742065786973740000000000000000005f82015250565b5f611014601783610b9c565b915061101f82610fe0565b602082019050919050565b5f6020820190508181035f83015261104181611008565b9050919050565b7f446f6e6174696f6e20616c726561647920636c61696d656400000000000000005f82015250565b5f61107c601883610b9c565b915061108782611048565b602082019050919050565b5f6020820190508181035f8301526110a981611070565b9050919050565b5f6040820190506110c35f8301856107c8565b6110d06020830184610b74565b939250505056fea2646970667358221220ec5f1ed01b9aef1b4e1cf5e27ad5e443a2de63df19ab113f32d98e2223387c8b64736f6c63430008150033",
  "immutableReferences": {},
  "source": "// SPDX-License-Identifier: MIT\r\npragma solidity ^0.8.0;\r\n\r\ncontract FoodDonation {\r\n    address public admin;\r\n    \r\n    struct Donation {\r\n        uint id;\r\n        string foodType;\r\n        uint quantity;\r\n        address donor;\r\n        address recipient;\r\n        bool claimed;\r\n    }\r\n\r\n    mapping(uint => Donation) public donations;\r\n    uint public donationCount;\r\n\r\n    event DonationCreated(uint donationId, string foodType, uint quantity, address donor);\r\n    event DonationClaimed(uint donationId, address recipient);\r\n\r\n    modifier onlyAdmin() {\r\n        require(msg.sender == admin, \"Only admin can perform this action\");\r\n        _;\r\n    }\r\n\r\n    constructor() {\r\n        admin = msg.sender;\r\n    }\r\n\r\n    // Create a new donation\r\n    function createDonation(string memory _foodType, uint _quantity) public {\r\n        donationCount++;\r\n        donations[donationCount] = Donation(donationCount, _foodType, _quantity, msg.sender, address(0), false);\r\n        emit DonationCreated(donationCount, _foodType, _quantity, msg.sender);\r\n    }\r\n\r\n    // Claim a donation\r\n    function claimDonation(uint _donationId) public {\r\n        require(donations[_donationId].donor != address(0), \"Donation does not exist\");\r\n        require(!donations[_donationId].claimed, \"Donation already claimed\");\r\n        donations[_donationId].recipient = msg.sender;\r\n        donations[_donationId].claimed = true;\r\n        emit DonationClaimed(_donationId, msg.sender);\r\n    }\r\n\r\n    // View donation details\r\n    function getDonation(uint _donationId) public view returns (Donation memory) {\r\n        return donations[_donationId];\r\n    }\r\n}\r\n",
  "sourcePath": "C:\\Users\\ADMIN\\FoodWasteManagement\\contracts\\FoodWasteManagement.sol",
  "compiler": {
    "name": "solc",
    "version": "0.8.21+commit.d9974bed.Emscripten.clang"
  },
  "schemaVersion": "3.4.16",
  "updatedAt": "2025-01-29T06:07:24.203Z",
  "devdoc": {
    "kind": "dev",
    "methods": {},
    "version": 1
  },
  "userdoc": {
    "kind": "user",
    "methods": {},
    "version": 1
  }
}